{
  "contractName": "CryptoPunksMarket",
  "abi": [
    {
      "inputs": [],
      "payable": true,
      "stateMutability": "payable",
      "type": "constructor"
    },
    {
      "anonymous": false,
      "inputs": [
        {
          "indexed": true,
          "internalType": "address",
          "name": "to",
          "type": "address"
        },
        {
          "indexed": false,
          "internalType": "uint256",
          "name": "punkIndex",
          "type": "uint256"
        }
      ],
      "name": "Assign",
      "type": "event"
    },
    {
      "anonymous": false,
      "inputs": [
        {
          "indexed": true,
          "internalType": "uint256",
          "name": "punkIndex",
          "type": "uint256"
        },
        {
          "indexed": false,
          "internalType": "uint256",
          "name": "value",
          "type": "uint256"
        },
        {
          "indexed": true,
          "internalType": "address",
          "name": "fromAddress",
          "type": "address"
        }
      ],
      "name": "PunkBidEntered",
      "type": "event"
    },
    {
      "anonymous": false,
      "inputs": [
        {
          "indexed": true,
          "internalType": "uint256",
          "name": "punkIndex",
          "type": "uint256"
        },
        {
          "indexed": false,
          "internalType": "uint256",
          "name": "value",
          "type": "uint256"
        },
        {
          "indexed": true,
          "internalType": "address",
          "name": "fromAddress",
          "type": "address"
        }
      ],
      "name": "PunkBidWithdrawn",
      "type": "event"
    },
    {
      "anonymous": false,
      "inputs": [
        {
          "indexed": true,
          "internalType": "uint256",
          "name": "punkIndex",
          "type": "uint256"
        },
        {
          "indexed": false,
          "internalType": "uint256",
          "name": "value",
          "type": "uint256"
        },
        {
          "indexed": true,
          "internalType": "address",
          "name": "fromAddress",
          "type": "address"
        },
        {
          "indexed": true,
          "internalType": "address",
          "name": "toAddress",
          "type": "address"
        }
      ],
      "name": "PunkBought",
      "type": "event"
    },
    {
      "anonymous": false,
      "inputs": [
        {
          "indexed": true,
          "internalType": "uint256",
          "name": "punkIndex",
          "type": "uint256"
        }
      ],
      "name": "PunkNoLongerForSale",
      "type": "event"
    },
    {
      "anonymous": false,
      "inputs": [
        {
          "indexed": true,
          "internalType": "uint256",
          "name": "punkIndex",
          "type": "uint256"
        },
        {
          "indexed": false,
          "internalType": "uint256",
          "name": "minValue",
          "type": "uint256"
        },
        {
          "indexed": true,
          "internalType": "address",
          "name": "toAddress",
          "type": "address"
        }
      ],
      "name": "PunkOffered",
      "type": "event"
    },
    {
      "anonymous": false,
      "inputs": [
        {
          "indexed": true,
          "internalType": "address",
          "name": "from",
          "type": "address"
        },
        {
          "indexed": true,
          "internalType": "address",
          "name": "to",
          "type": "address"
        },
        {
          "indexed": false,
          "internalType": "uint256",
          "name": "punkIndex",
          "type": "uint256"
        }
      ],
      "name": "PunkTransfer",
      "type": "event"
    },
    {
      "anonymous": false,
      "inputs": [
        {
          "indexed": true,
          "internalType": "address",
          "name": "from",
          "type": "address"
        },
        {
          "indexed": true,
          "internalType": "address",
          "name": "to",
          "type": "address"
        },
        {
          "indexed": false,
          "internalType": "uint256",
          "name": "value",
          "type": "uint256"
        }
      ],
      "name": "Transfer",
      "type": "event"
    },
    {
      "constant": true,
      "inputs": [],
      "name": "allPunksAssigned",
      "outputs": [
        {
          "internalType": "bool",
          "name": "",
          "type": "bool"
        }
      ],
      "payable": false,
      "stateMutability": "view",
      "type": "function"
    },
    {
      "constant": true,
      "inputs": [
        {
          "internalType": "address",
          "name": "",
          "type": "address"
        }
      ],
      "name": "balanceOf",
      "outputs": [
        {
          "internalType": "uint256",
          "name": "",
          "type": "uint256"
        }
      ],
      "payable": false,
      "stateMutability": "view",
      "type": "function"
    },
    {
      "constant": true,
      "inputs": [],
      "name": "decimals",
      "outputs": [
        {
          "internalType": "uint8",
          "name": "",
          "type": "uint8"
        }
      ],
      "payable": false,
      "stateMutability": "view",
      "type": "function"
    },
    {
      "constant": true,
      "inputs": [],
      "name": "imageHash",
      "outputs": [
        {
          "internalType": "string",
          "name": "",
          "type": "string"
        }
      ],
      "payable": false,
      "stateMutability": "view",
      "type": "function"
    },
    {
      "constant": true,
      "inputs": [],
      "name": "name",
      "outputs": [
        {
          "internalType": "string",
          "name": "",
          "type": "string"
        }
      ],
      "payable": false,
      "stateMutability": "view",
      "type": "function"
    },
    {
      "constant": true,
      "inputs": [],
      "name": "nextPunkIndexToAssign",
      "outputs": [
        {
          "internalType": "uint256",
          "name": "",
          "type": "uint256"
        }
      ],
      "payable": false,
      "stateMutability": "view",
      "type": "function"
    },
    {
      "constant": true,
      "inputs": [
        {
          "internalType": "address",
          "name": "",
          "type": "address"
        }
      ],
      "name": "pendingWithdrawals",
      "outputs": [
        {
          "internalType": "uint256",
          "name": "",
          "type": "uint256"
        }
      ],
      "payable": false,
      "stateMutability": "view",
      "type": "function"
    },
    {
      "constant": true,
      "inputs": [
        {
          "internalType": "uint256",
          "name": "",
          "type": "uint256"
        }
      ],
      "name": "punkBids",
      "outputs": [
        {
          "internalType": "bool",
          "name": "hasBid",
          "type": "bool"
        },
        {
          "internalType": "uint256",
          "name": "punkIndex",
          "type": "uint256"
        },
        {
          "internalType": "address",
          "name": "bidder",
          "type": "address"
        },
        {
          "internalType": "uint256",
          "name": "value",
          "type": "uint256"
        }
      ],
      "payable": false,
      "stateMutability": "view",
      "type": "function"
    },
    {
      "constant": true,
      "inputs": [
        {
          "internalType": "uint256",
          "name": "",
          "type": "uint256"
        }
      ],
      "name": "punkIndexToAddress",
      "outputs": [
        {
          "internalType": "address",
          "name": "",
          "type": "address"
        }
      ],
      "payable": false,
      "stateMutability": "view",
      "type": "function"
    },
    {
      "constant": true,
      "inputs": [
        {
          "internalType": "uint256",
          "name": "",
          "type": "uint256"
        }
      ],
      "name": "punksOfferedForSale",
      "outputs": [
        {
          "internalType": "bool",
          "name": "isForSale",
          "type": "bool"
        },
        {
          "internalType": "uint256",
          "name": "punkIndex",
          "type": "uint256"
        },
        {
          "internalType": "address",
          "name": "seller",
          "type": "address"
        },
        {
          "internalType": "uint256",
          "name": "minValue",
          "type": "uint256"
        },
        {
          "internalType": "address",
          "name": "onlySellTo",
          "type": "address"
        }
      ],
      "payable": false,
      "stateMutability": "view",
      "type": "function"
    },
    {
      "constant": true,
      "inputs": [],
      "name": "punksRemainingToAssign",
      "outputs": [
        {
          "internalType": "uint256",
          "name": "",
          "type": "uint256"
        }
      ],
      "payable": false,
      "stateMutability": "view",
      "type": "function"
    },
    {
      "constant": true,
      "inputs": [],
      "name": "standard",
      "outputs": [
        {
          "internalType": "string",
          "name": "",
          "type": "string"
        }
      ],
      "payable": false,
      "stateMutability": "view",
      "type": "function"
    },
    {
      "constant": true,
      "inputs": [],
      "name": "symbol",
      "outputs": [
        {
          "internalType": "string",
          "name": "",
          "type": "string"
        }
      ],
      "payable": false,
      "stateMutability": "view",
      "type": "function"
    },
    {
      "constant": true,
      "inputs": [],
      "name": "totalSupply",
      "outputs": [
        {
          "internalType": "uint256",
          "name": "",
          "type": "uint256"
        }
      ],
      "payable": false,
      "stateMutability": "view",
      "type": "function"
    },
    {
      "constant": false,
      "inputs": [
        {
          "internalType": "address",
          "name": "to",
          "type": "address"
        },
        {
          "internalType": "uint256",
          "name": "punkIndex",
          "type": "uint256"
        }
      ],
      "name": "setInitialOwner",
      "outputs": [],
      "payable": false,
      "stateMutability": "nonpayable",
      "type": "function"
    },
    {
      "constant": false,
      "inputs": [
        {
          "internalType": "address[]",
          "name": "addresses",
          "type": "address[]"
        },
        {
          "internalType": "uint256[]",
          "name": "indices",
          "type": "uint256[]"
        }
      ],
      "name": "setInitialOwners",
      "outputs": [],
      "payable": false,
      "stateMutability": "nonpayable",
      "type": "function"
    },
    {
      "constant": false,
      "inputs": [],
      "name": "allInitialOwnersAssigned",
      "outputs": [],
      "payable": false,
      "stateMutability": "nonpayable",
      "type": "function"
    },
    {
      "constant": false,
      "inputs": [
        {
          "internalType": "uint256",
          "name": "punkIndex",
          "type": "uint256"
        }
      ],
      "name": "getPunk",
      "outputs": [],
      "payable": false,
      "stateMutability": "nonpayable",
      "type": "function"
    },
    {
      "constant": false,
      "inputs": [
        {
          "internalType": "address",
          "name": "to",
          "type": "address"
        },
        {
          "internalType": "uint256",
          "name": "punkIndex",
          "type": "uint256"
        }
      ],
      "name": "transferPunk",
      "outputs": [],
      "payable": false,
      "stateMutability": "nonpayable",
      "type": "function"
    },
    {
      "constant": false,
      "inputs": [
        {
          "internalType": "uint256",
          "name": "punkIndex",
          "type": "uint256"
        }
      ],
      "name": "punkNoLongerForSale",
      "outputs": [],
      "payable": false,
      "stateMutability": "nonpayable",
      "type": "function"
    },
    {
      "constant": false,
      "inputs": [
        {
          "internalType": "uint256",
          "name": "punkIndex",
          "type": "uint256"
        },
        {
          "internalType": "uint256",
          "name": "minSalePriceInWei",
          "type": "uint256"
        }
      ],
      "name": "offerPunkForSale",
      "outputs": [],
      "payable": false,
      "stateMutability": "nonpayable",
      "type": "function"
    },
    {
      "constant": false,
      "inputs": [
        {
          "internalType": "uint256",
          "name": "punkIndex",
          "type": "uint256"
        },
        {
          "internalType": "uint256",
          "name": "minSalePriceInWei",
          "type": "uint256"
        },
        {
          "internalType": "address",
          "name": "toAddress",
          "type": "address"
        }
      ],
      "name": "offerPunkForSaleToAddress",
      "outputs": [],
      "payable": false,
      "stateMutability": "nonpayable",
      "type": "function"
    },
    {
      "constant": false,
      "inputs": [
        {
          "internalType": "uint256",
          "name": "punkIndex",
          "type": "uint256"
        }
      ],
      "name": "buyPunk",
      "outputs": [],
      "payable": true,
      "stateMutability": "payable",
      "type": "function"
    },
    {
      "constant": false,
      "inputs": [],
      "name": "withdraw",
      "outputs": [],
      "payable": false,
      "stateMutability": "nonpayable",
      "type": "function"
    },
    {
      "constant": false,
      "inputs": [
        {
          "internalType": "uint256",
          "name": "punkIndex",
          "type": "uint256"
        }
      ],
      "name": "enterBidForPunk",
      "outputs": [],
      "payable": true,
      "stateMutability": "payable",
      "type": "function"
    },
    {
      "constant": false,
      "inputs": [
        {
          "internalType": "uint256",
          "name": "punkIndex",
          "type": "uint256"
        },
        {
          "internalType": "uint256",
          "name": "minPrice",
          "type": "uint256"
        }
      ],
      "name": "acceptBidForPunk",
      "outputs": [],
      "payable": false,
      "stateMutability": "nonpayable",
      "type": "function"
    },
    {
      "constant": false,
      "inputs": [
        {
          "internalType": "uint256",
          "name": "punkIndex",
          "type": "uint256"
        }
      ],
      "name": "withdrawBidForPunk",
      "outputs": [],
      "payable": false,
      "stateMutability": "nonpayable",
      "type": "function"
    }
  ],
  "bytecode": "0x6080604052604051806060016040528060408152602001620033e8604091396000908051906020019062000035929190620001ba565b506040518060400160405280600b81526020017f43727970746f50756e6b730000000000000000000000000000000000000000008152506002908051906020019062000083929190620001ba565b5060006007556000600860006101000a81548160ff021916908315150217905550600060095533600160006101000a81548173ffffffffffffffffffffffffffffffffffffffff021916908373ffffffffffffffffffffffffffffffffffffffff1602179055506127106006819055506006546009819055506040518060400160405280600b81526020017f43525950544f50554e4b530000000000000000000000000000000000000000008152506003908051906020019062000149929190620001ba565b506040518060400160405280600281526020017fcfbe0000000000000000000000000000000000000000000000000000000000008152506004908051906020019062000197929190620001ba565b506000600560006101000a81548160ff021916908360ff16021790555062000269565b828054600181600116156101000203166002900490600052602060002090601f016020900481019282601f10620001fd57805160ff19168380011785556200022e565b828001600101855582156200022e579182015b828111156200022d57825182559160200191906001019062000210565b5b5090506200023d919062000241565b5090565b6200026691905b808211156200026257600081600090555060010162000248565b5090565b90565b61316f80620002796000396000f3fe60806040526004361061019c5760003560e01c806370a08231116100ec578063a75a90491161008a578063c44193c311610064578063c44193c314610a7b578063c81d1d5b14610ac0578063f3f4370314610afb578063f6eeff1e14610b605761019c565b8063a75a904914610990578063bf31196f146109eb578063c0d6ce6314610a505761019c565b80638264fe98116100c65780638264fe981461083c5780638b72a2ec1461086a57806395d89b41146108c5578063979bc638146109555761019c565b806370a08231146107915780637ecedac9146107f65780638126c38a1461080d5761019c565b806339c5dde61161015957806352f29a251161013357806352f29a25146105c757806358178168146105f25780635a3b7e421461066d5780636e743fa9146106fd5761019c565b806339c5dde6146103c75780633ccfd60b1461052057806351605d80146105375761019c565b806306fdde03146101a1578063088f11f314610231578063091dbfd2146102f857806318160ddd1461032657806323165b7514610351578063313ce56714610396575b600080fd5b3480156101ad57600080fd5b506101b6610b9b565b6040518080602001828103825283818151815260200191508051906020019080838360005b838110156101f65780820151818401526020810190506101db565b50505050905090810190601f1680156102235780820380516001836020036101000a031916815260200191505b509250505060405180910390f35b34801561023d57600080fd5b5061026a6004803603602081101561025457600080fd5b8101908080359060200190929190505050610c39565b60405180861515151581526020018581526020018473ffffffffffffffffffffffffffffffffffffffff1673ffffffffffffffffffffffffffffffffffffffff1681526020018381526020018273ffffffffffffffffffffffffffffffffffffffff1673ffffffffffffffffffffffffffffffffffffffff1681526020019550505050505060405180910390f35b6103246004803603602081101561030e57600080fd5b8101908080359060200190929190505050610cbc565b005b34801561033257600080fd5b5061033b610f92565b6040518082815260200191505060405180910390f35b34801561035d57600080fd5b506103946004803603604081101561037457600080fd5b810190808035906020019092919080359060200190929190505050610f98565b005b3480156103a257600080fd5b506103ab611538565b604051808260ff1660ff16815260200191505060405180910390f35b3480156103d357600080fd5b5061051e600480360360408110156103ea57600080fd5b810190808035906020019064010000000081111561040757600080fd5b82018360208201111561041957600080fd5b8035906020019184602083028401116401000000008311171561043b57600080fd5b919080806020026020016040519081016040528093929190818152602001838360200280828437600081840152601f19601f8201169050808301925050505050505091929192908035906020019064010000000081111561049b57600080fd5b8201836020820111156104ad57600080fd5b803590602001918460208302840111640100000000831117156104cf57600080fd5b919080806020026020016040519081016040528093929190818152602001838360200280828437600081840152601f19601f82011690508083019250505050505050919291929050505061154b565b005b34801561052c57600080fd5b506105356115fc565b005b34801561054357600080fd5b5061054c6116e8565b6040518080602001828103825283818151815260200191508051906020019080838360005b8381101561058c578082015181840152602081019050610571565b50505050905090810190601f1680156105b95780820380516001836020036101000a031916815260200191505b509250505060405180910390f35b3480156105d357600080fd5b506105dc611786565b6040518082815260200191505060405180910390f35b3480156105fe57600080fd5b5061062b6004803603602081101561061557600080fd5b810190808035906020019092919050505061178c565b604051808273ffffffffffffffffffffffffffffffffffffffff1673ffffffffffffffffffffffffffffffffffffffff16815260200191505060405180910390f35b34801561067957600080fd5b506106826117bf565b6040518080602001828103825283818151815260200191508051906020019080838360005b838110156106c25780820151818401526020810190506106a7565b50505050905090810190601f1680156106ef5780820380516001836020036101000a031916815260200191505b509250505060405180910390f35b34801561070957600080fd5b506107366004803603602081101561072057600080fd5b810190808035906020019092919050505061185d565b60405180851515151581526020018481526020018373ffffffffffffffffffffffffffffffffffffffff1673ffffffffffffffffffffffffffffffffffffffff16815260200182815260200194505050505060405180910390f35b34801561079d57600080fd5b506107e0600480360360208110156107b457600080fd5b81019080803573ffffffffffffffffffffffffffffffffffffffff1690602001909291905050506118ba565b6040518082815260200191505060405180910390f35b34801561080257600080fd5b5061080b6118d2565b005b34801561081957600080fd5b50610822611949565b604051808215151515815260200191505060405180910390f35b6108686004803603602081101561085257600080fd5b810190808035906020019092919050505061195c565b005b34801561087657600080fd5b506108c36004803603604081101561088d57600080fd5b81019080803573ffffffffffffffffffffffffffffffffffffffff16906020019092919080359060200190929190505050611ee0565b005b3480156108d157600080fd5b506108da6122f4565b6040518080602001828103825283818151815260200191508051906020019080838360005b8381101561091a5780820151818401526020810190506108ff565b50505050905090810190601f1680156109475780820380516001836020036101000a031916815260200191505b509250505060405180910390f35b34801561096157600080fd5b5061098e6004803603602081101561097857600080fd5b8101908080359060200190929190505050612392565b005b34801561099c57600080fd5b506109e9600480360360408110156109b357600080fd5b81019080803573ffffffffffffffffffffffffffffffffffffffff1690602001909291908035906020019092919050505061267a565b005b3480156109f757600080fd5b50610a4e60048036036060811015610a0e57600080fd5b810190808035906020019092919080359060200190929190803573ffffffffffffffffffffffffffffffffffffffff169060200190929190505050612959565b005b348015610a5c57600080fd5b50610a65612b6d565b6040518082815260200191505060405180910390f35b348015610a8757600080fd5b50610abe60048036036040811015610a9e57600080fd5b810190808035906020019092919080359060200190929190505050612b73565b005b348015610acc57600080fd5b50610af960048036036020811015610ae357600080fd5b8101908080359060200190929190505050612d88565b005b348015610b0757600080fd5b50610b4a60048036036020811015610b1e57600080fd5b81019080803573ffffffffffffffffffffffffffffffffffffffff169060200190929190505050612f30565b6040518082815260200191505060405180910390f35b348015610b6c57600080fd5b50610b9960048036036020811015610b8357600080fd5b8101908080359060200190929190505050612f48565b005b60038054600181600116156101000203166002900480601f016020809104026020016040519081016040528092919081815260200182805460018160011615610100020316600290048015610c315780601f10610c0657610100808354040283529160200191610c31565b820191906000526020600020905b815481529060010190602001808311610c1457829003601f168201915b505050505081565b600c6020528060005260406000206000915090508060000160009054906101000a900460ff16908060010154908060020160009054906101000a900473ffffffffffffffffffffffffffffffffffffffff16908060030154908060040160009054906101000a900473ffffffffffffffffffffffffffffffffffffffff16905085565b6127108110610cca57600080fd5b600860009054906101000a900460ff16610ce357600080fd5b600073ffffffffffffffffffffffffffffffffffffffff16600a600083815260200190815260200160002060009054906101000a900473ffffffffffffffffffffffffffffffffffffffff1673ffffffffffffffffffffffffffffffffffffffff161415610d5057600080fd5b3373ffffffffffffffffffffffffffffffffffffffff16600a600083815260200190815260200160002060009054906101000a900473ffffffffffffffffffffffffffffffffffffffff1673ffffffffffffffffffffffffffffffffffffffff161415610dbc57600080fd5b6000341415610dca57600080fd5b6000600d6000838152602001908152602001600020905080600301543411610df157600080fd5b600081600301541115610e74578060030154600e60008360020160009054906101000a900473ffffffffffffffffffffffffffffffffffffffff1673ffffffffffffffffffffffffffffffffffffffff1673ffffffffffffffffffffffffffffffffffffffff168152602001908152602001600020600082825401925050819055505b60405180608001604052806001151581526020018381526020013373ffffffffffffffffffffffffffffffffffffffff16815260200134815250600d600084815260200190815260200160002060008201518160000160006101000a81548160ff0219169083151502179055506020820151816001015560408201518160020160006101000a81548173ffffffffffffffffffffffffffffffffffffffff021916908373ffffffffffffffffffffffffffffffffffffffff160217905550606082015181600301559050503373ffffffffffffffffffffffffffffffffffffffff16827f5b859394fabae0c1ba88baffe67e751ab5248d2e879028b8c8d6897b0519f56a346040518082815260200191505060405180910390a35050565b60065481565b6127108210610fa657600080fd5b600860009054906101000a900460ff16610fbf57600080fd5b3373ffffffffffffffffffffffffffffffffffffffff16600a600084815260200190815260200160002060009054906101000a900473ffffffffffffffffffffffffffffffffffffffff1673ffffffffffffffffffffffffffffffffffffffff161461102a57600080fd5b60003390506000600d6000858152602001908152602001600020905060008160030154141561105857600080fd5b828160030154101561106957600080fd5b8060020160009054906101000a900473ffffffffffffffffffffffffffffffffffffffff16600a600086815260200190815260200160002060006101000a81548173ffffffffffffffffffffffffffffffffffffffff021916908373ffffffffffffffffffffffffffffffffffffffff160217905550600b60008373ffffffffffffffffffffffffffffffffffffffff1673ffffffffffffffffffffffffffffffffffffffff1681526020019081526020016000206000815480929190600190039190505550600b60008260020160009054906101000a900473ffffffffffffffffffffffffffffffffffffffff1673ffffffffffffffffffffffffffffffffffffffff1673ffffffffffffffffffffffffffffffffffffffff168152602001908152602001600020600081548092919060010191905055508060020160009054906101000a900473ffffffffffffffffffffffffffffffffffffffff1673ffffffffffffffffffffffffffffffffffffffff168273ffffffffffffffffffffffffffffffffffffffff167fddf252ad1be2c89b69c2b068fc378daa952ba7f163c4a11628f55a4df523b3ef60016040518082815260200191505060405180910390a36040518060a001604052806000151581526020018581526020018260020160009054906101000a900473ffffffffffffffffffffffffffffffffffffffff1673ffffffffffffffffffffffffffffffffffffffff16815260200160008152602001600073ffffffffffffffffffffffffffffffffffffffff16815250600c600086815260200190815260200160002060008201518160000160006101000a81548160ff0219169083151502179055506020820151816001015560408201518160020160006101000a81548173ffffffffffffffffffffffffffffffffffffffff021916908373ffffffffffffffffffffffffffffffffffffffff1602179055506060820151816003015560808201518160040160006101000a81548173ffffffffffffffffffffffffffffffffffffffff021916908373ffffffffffffffffffffffffffffffffffffffff1602179055509050506000816003015490506040518060800160405280600015158152602001868152602001600073ffffffffffffffffffffffffffffffffffffffff1681526020016000815250600d600087815260200190815260200160002060008201518160000160006101000a81548160ff0219169083151502179055506020820151816001015560408201518160020160006101000a81548173ffffffffffffffffffffffffffffffffffffffff021916908373ffffffffffffffffffffffffffffffffffffffff1602179055506060820151816003015590505080600e60008573ffffffffffffffffffffffffffffffffffffffff1673ffffffffffffffffffffffffffffffffffffffff168152602001908152602001600020600082825401925050819055508160020160009054906101000a900473ffffffffffffffffffffffffffffffffffffffff1673ffffffffffffffffffffffffffffffffffffffff168373ffffffffffffffffffffffffffffffffffffffff16867f58e5d5a525e3b40bc15abaa38b5882678db1ee68befd2f60bafe3a7fd06db9e385600301546040518082815260200191505060405180910390a45050505050565b600560009054906101000a900460ff1681565b600160009054906101000a900473ffffffffffffffffffffffffffffffffffffffff1673ffffffffffffffffffffffffffffffffffffffff163373ffffffffffffffffffffffffffffffffffffffff16146115a557600080fd5b60008251905060008090505b818110156115f6576115e98482815181106115c857fe5b60200260200101518483815181106115dc57fe5b602002602001015161267a565b80806001019150506115b1565b50505050565b600860009054906101000a900460ff1661161557600080fd5b6000600e60003373ffffffffffffffffffffffffffffffffffffffff1673ffffffffffffffffffffffffffffffffffffffff1681526020019081526020016000205490506000600e60003373ffffffffffffffffffffffffffffffffffffffff1673ffffffffffffffffffffffffffffffffffffffff168152602001908152602001600020819055503373ffffffffffffffffffffffffffffffffffffffff166108fc829081150290604051600060405180830381858888f193505050501580156116e4573d6000803e3d6000fd5b5050565b60008054600181600116156101000203166002900480601f01602080910402602001604051908101604052809291908181526020018280546001816001161561010002031660029004801561177e5780601f106117535761010080835404028352916020019161177e565b820191906000526020600020905b81548152906001019060200180831161176157829003601f168201915b505050505081565b60075481565b600a6020528060005260406000206000915054906101000a900473ffffffffffffffffffffffffffffffffffffffff1681565b60028054600181600116156101000203166002900480601f0160208091040260200160405190810160405280929190818152602001828054600181600116156101000203166002900480156118555780601f1061182a57610100808354040283529160200191611855565b820191906000526020600020905b81548152906001019060200180831161183857829003601f168201915b505050505081565b600d6020528060005260406000206000915090508060000160009054906101000a900460ff16908060010154908060020160009054906101000a900473ffffffffffffffffffffffffffffffffffffffff16908060030154905084565b600b6020528060005260406000206000915090505481565b600160009054906101000a900473ffffffffffffffffffffffffffffffffffffffff1673ffffffffffffffffffffffffffffffffffffffff163373ffffffffffffffffffffffffffffffffffffffff161461192c57600080fd5b6001600860006101000a81548160ff021916908315150217905550565b600860009054906101000a900460ff1681565b600860009054906101000a900460ff1661197557600080fd5b6000600c60008381526020019081526020016000209050612710821061199a57600080fd5b8060000160009054906101000a900460ff166119b557600080fd5b600073ffffffffffffffffffffffffffffffffffffffff168160040160009054906101000a900473ffffffffffffffffffffffffffffffffffffffff1673ffffffffffffffffffffffffffffffffffffffff1614158015611a6657503373ffffffffffffffffffffffffffffffffffffffff168160040160009054906101000a900473ffffffffffffffffffffffffffffffffffffffff1673ffffffffffffffffffffffffffffffffffffffff1614155b15611a7057600080fd5b8060030154341015611a8157600080fd5b600a600083815260200190815260200160002060009054906101000a900473ffffffffffffffffffffffffffffffffffffffff1673ffffffffffffffffffffffffffffffffffffffff168160020160009054906101000a900473ffffffffffffffffffffffffffffffffffffffff1673ffffffffffffffffffffffffffffffffffffffff1614611b1057600080fd5b60008160020160009054906101000a900473ffffffffffffffffffffffffffffffffffffffff16905033600a600085815260200190815260200160002060006101000a81548173ffffffffffffffffffffffffffffffffffffffff021916908373ffffffffffffffffffffffffffffffffffffffff160217905550600b60008273ffffffffffffffffffffffffffffffffffffffff1673ffffffffffffffffffffffffffffffffffffffff1681526020019081526020016000206000815480929190600190039190505550600b60003373ffffffffffffffffffffffffffffffffffffffff1673ffffffffffffffffffffffffffffffffffffffff168152602001908152602001600020600081548092919060010191905055503373ffffffffffffffffffffffffffffffffffffffff168173ffffffffffffffffffffffffffffffffffffffff167fddf252ad1be2c89b69c2b068fc378daa952ba7f163c4a11628f55a4df523b3ef60016040518082815260200191505060405180910390a3611c9983612f48565b34600e60008373ffffffffffffffffffffffffffffffffffffffff1673ffffffffffffffffffffffffffffffffffffffff168152602001908152602001600020600082825401925050819055503373ffffffffffffffffffffffffffffffffffffffff168173ffffffffffffffffffffffffffffffffffffffff16847f58e5d5a525e3b40bc15abaa38b5882678db1ee68befd2f60bafe3a7fd06db9e3346040518082815260200191505060405180910390a46000600d600085815260200190815260200160002090503373ffffffffffffffffffffffffffffffffffffffff168160020160009054906101000a900473ffffffffffffffffffffffffffffffffffffffff1673ffffffffffffffffffffffffffffffffffffffff161415611eda578060030154600e60003373ffffffffffffffffffffffffffffffffffffffff1673ffffffffffffffffffffffffffffffffffffffff168152602001908152602001600020600082825401925050819055506040518060800160405280600015158152602001858152602001600073ffffffffffffffffffffffffffffffffffffffff1681526020016000815250600d600086815260200190815260200160002060008201518160000160006101000a81548160ff0219169083151502179055506020820151816001015560408201518160020160006101000a81548173ffffffffffffffffffffffffffffffffffffffff021916908373ffffffffffffffffffffffffffffffffffffffff160217905550606082015181600301559050505b50505050565b600860009054906101000a900460ff16611ef957600080fd5b3373ffffffffffffffffffffffffffffffffffffffff16600a600083815260200190815260200160002060009054906101000a900473ffffffffffffffffffffffffffffffffffffffff1673ffffffffffffffffffffffffffffffffffffffff1614611f6457600080fd5b6127108110611f7257600080fd5b600c600082815260200190815260200160002060000160009054906101000a900460ff1615611fa557611fa481612f48565b5b81600a600083815260200190815260200160002060006101000a81548173ffffffffffffffffffffffffffffffffffffffff021916908373ffffffffffffffffffffffffffffffffffffffff160217905550600b60003373ffffffffffffffffffffffffffffffffffffffff1673ffffffffffffffffffffffffffffffffffffffff1681526020019081526020016000206000815480929190600190039190505550600b60008373ffffffffffffffffffffffffffffffffffffffff1673ffffffffffffffffffffffffffffffffffffffff168152602001908152602001600020600081548092919060010191905055508173ffffffffffffffffffffffffffffffffffffffff163373ffffffffffffffffffffffffffffffffffffffff167fddf252ad1be2c89b69c2b068fc378daa952ba7f163c4a11628f55a4df523b3ef60016040518082815260200191505060405180910390a38173ffffffffffffffffffffffffffffffffffffffff163373ffffffffffffffffffffffffffffffffffffffff167f05af636b70da6819000c49f85b21fa82081c632069bb626f30932034099107d8836040518082815260200191505060405180910390a36000600d600083815260200190815260200160002090508273ffffffffffffffffffffffffffffffffffffffff168160020160009054906101000a900473ffffffffffffffffffffffffffffffffffffffff1673ffffffffffffffffffffffffffffffffffffffff1614156122ef578060030154600e60008573ffffffffffffffffffffffffffffffffffffffff1673ffffffffffffffffffffffffffffffffffffffff168152602001908152602001600020600082825401925050819055506040518060800160405280600015158152602001838152602001600073ffffffffffffffffffffffffffffffffffffffff1681526020016000815250600d600084815260200190815260200160002060008201518160000160006101000a81548160ff0219169083151502179055506020820151816001015560408201518160020160006101000a81548173ffffffffffffffffffffffffffffffffffffffff021916908373ffffffffffffffffffffffffffffffffffffffff160217905550606082015181600301559050505b505050565b60048054600181600116156101000203166002900480601f01602080910402602001604051908101604052809291908181526020018280546001816001161561010002031660029004801561238a5780601f1061235f5761010080835404028352916020019161238a565b820191906000526020600020905b81548152906001019060200180831161236d57829003601f168201915b505050505081565b61271081106123a057600080fd5b600860009054906101000a900460ff166123b957600080fd5b600073ffffffffffffffffffffffffffffffffffffffff16600a600083815260200190815260200160002060009054906101000a900473ffffffffffffffffffffffffffffffffffffffff1673ffffffffffffffffffffffffffffffffffffffff16141561242657600080fd5b3373ffffffffffffffffffffffffffffffffffffffff16600a600083815260200190815260200160002060009054906101000a900473ffffffffffffffffffffffffffffffffffffffff1673ffffffffffffffffffffffffffffffffffffffff16141561249257600080fd5b6000600d600083815260200190815260200160002090503373ffffffffffffffffffffffffffffffffffffffff168160020160009054906101000a900473ffffffffffffffffffffffffffffffffffffffff1673ffffffffffffffffffffffffffffffffffffffff161461250557600080fd5b3373ffffffffffffffffffffffffffffffffffffffff16827f6f30e1ee4d81dcc7a8a478577f65d2ed2edb120565960ac45fe7c50551c8793283600301546040518082815260200191505060405180910390a36000816003015490506040518060800160405280600015158152602001848152602001600073ffffffffffffffffffffffffffffffffffffffff1681526020016000815250600d600085815260200190815260200160002060008201518160000160006101000a81548160ff0219169083151502179055506020820151816001015560408201518160020160006101000a81548173ffffffffffffffffffffffffffffffffffffffff021916908373ffffffffffffffffffffffffffffffffffffffff160217905550606082015181600301559050503373ffffffffffffffffffffffffffffffffffffffff166108fc829081150290604051600060405180830381858888f19350505050158015612674573d6000803e3d6000fd5b50505050565b600160009054906101000a900473ffffffffffffffffffffffffffffffffffffffff1673ffffffffffffffffffffffffffffffffffffffff163373ffffffffffffffffffffffffffffffffffffffff16146126d457600080fd5b600860009054906101000a900460ff16156126ee57600080fd5b61271081106126fc57600080fd5b8173ffffffffffffffffffffffffffffffffffffffff16600a600083815260200190815260200160002060009054906101000a900473ffffffffffffffffffffffffffffffffffffffff1673ffffffffffffffffffffffffffffffffffffffff161461295557600073ffffffffffffffffffffffffffffffffffffffff16600a600083815260200190815260200160002060009054906101000a900473ffffffffffffffffffffffffffffffffffffffff1673ffffffffffffffffffffffffffffffffffffffff161461285157600b6000600a600084815260200190815260200160002060009054906101000a900473ffffffffffffffffffffffffffffffffffffffff1673ffffffffffffffffffffffffffffffffffffffff1673ffffffffffffffffffffffffffffffffffffffff1681526020019081526020016000206000815480929190600190039190505550612865565b600960008154809291906001900391905055505b81600a600083815260200190815260200160002060006101000a81548173ffffffffffffffffffffffffffffffffffffffff021916908373ffffffffffffffffffffffffffffffffffffffff160217905550600b60008373ffffffffffffffffffffffffffffffffffffffff1673ffffffffffffffffffffffffffffffffffffffff168152602001908152602001600020600081548092919060010191905055508173ffffffffffffffffffffffffffffffffffffffff167f8a0e37b73a0d9c82e205d4d1a3ff3d0b57ce5f4d7bccf6bac03336dc101cb7ba826040518082815260200191505060405180910390a25b5050565b600860009054906101000a900460ff1661297257600080fd5b3373ffffffffffffffffffffffffffffffffffffffff16600a600085815260200190815260200160002060009054906101000a900473ffffffffffffffffffffffffffffffffffffffff1673ffffffffffffffffffffffffffffffffffffffff16146129dd57600080fd5b61271083106129eb57600080fd5b6040518060a001604052806001151581526020018481526020013373ffffffffffffffffffffffffffffffffffffffff1681526020018381526020018273ffffffffffffffffffffffffffffffffffffffff16815250600c600085815260200190815260200160002060008201518160000160006101000a81548160ff0219169083151502179055506020820151816001015560408201518160020160006101000a81548173ffffffffffffffffffffffffffffffffffffffff021916908373ffffffffffffffffffffffffffffffffffffffff1602179055506060820151816003015560808201518160040160006101000a81548173ffffffffffffffffffffffffffffffffffffffff021916908373ffffffffffffffffffffffffffffffffffffffff1602179055509050508073ffffffffffffffffffffffffffffffffffffffff16837f3c7b682d5da98001a9b8cbda6c647d2c63d698a4184fd1d55e2ce7b66f5d21eb846040518082815260200191505060405180910390a3505050565b60095481565b600860009054906101000a900460ff16612b8c57600080fd5b3373ffffffffffffffffffffffffffffffffffffffff16600a600084815260200190815260200160002060009054906101000a900473ffffffffffffffffffffffffffffffffffffffff1673ffffffffffffffffffffffffffffffffffffffff1614612bf757600080fd5b6127108210612c0557600080fd5b6040518060a001604052806001151581526020018381526020013373ffffffffffffffffffffffffffffffffffffffff168152602001828152602001600073ffffffffffffffffffffffffffffffffffffffff16815250600c600084815260200190815260200160002060008201518160000160006101000a81548160ff0219169083151502179055506020820151816001015560408201518160020160006101000a81548173ffffffffffffffffffffffffffffffffffffffff021916908373ffffffffffffffffffffffffffffffffffffffff1602179055506060820151816003015560808201518160040160006101000a81548173ffffffffffffffffffffffffffffffffffffffff021916908373ffffffffffffffffffffffffffffffffffffffff160217905550905050600073ffffffffffffffffffffffffffffffffffffffff16827f3c7b682d5da98001a9b8cbda6c647d2c63d698a4184fd1d55e2ce7b66f5d21eb836040518082815260200191505060405180910390a35050565b600860009054906101000a900460ff16612da157600080fd5b60006009541415612db157600080fd5b600073ffffffffffffffffffffffffffffffffffffffff16600a600083815260200190815260200160002060009054906101000a900473ffffffffffffffffffffffffffffffffffffffff1673ffffffffffffffffffffffffffffffffffffffff1614612e1d57600080fd5b6127108110612e2b57600080fd5b33600a600083815260200190815260200160002060006101000a81548173ffffffffffffffffffffffffffffffffffffffff021916908373ffffffffffffffffffffffffffffffffffffffff160217905550600b60003373ffffffffffffffffffffffffffffffffffffffff1673ffffffffffffffffffffffffffffffffffffffff16815260200190815260200160002060008154809291906001019190505550600960008154809291906001900391905055503373ffffffffffffffffffffffffffffffffffffffff167f8a0e37b73a0d9c82e205d4d1a3ff3d0b57ce5f4d7bccf6bac03336dc101cb7ba826040518082815260200191505060405180910390a250565b600e6020528060005260406000206000915090505481565b600860009054906101000a900460ff16612f6157600080fd5b3373ffffffffffffffffffffffffffffffffffffffff16600a600083815260200190815260200160002060009054906101000a900473ffffffffffffffffffffffffffffffffffffffff1673ffffffffffffffffffffffffffffffffffffffff1614612fcc57600080fd5b6127108110612fda57600080fd5b6040518060a001604052806000151581526020018281526020013373ffffffffffffffffffffffffffffffffffffffff16815260200160008152602001600073ffffffffffffffffffffffffffffffffffffffff16815250600c600083815260200190815260200160002060008201518160000160006101000a81548160ff0219169083151502179055506020820151816001015560408201518160020160006101000a81548173ffffffffffffffffffffffffffffffffffffffff021916908373ffffffffffffffffffffffffffffffffffffffff1602179055506060820151816003015560808201518160040160006101000a81548173ffffffffffffffffffffffffffffffffffffffff021916908373ffffffffffffffffffffffffffffffffffffffff160217905550905050807fb0e0a660b4e50f26f0b7ce75c24655fc76cc66e3334a54ff410277229fa10bd460405160405180910390a25056fea265627a7a723158202faa5892a465296f5baecf136b9f4cb83a001761205df97fe1f1b2bf36c29b1364736f6c6343000510003261633339616634373933313139656534366262666633353164386362366235663233646136303232323132366164643432363865323631313939613239323162",
  "source": "pragma solidity ^0.5.16;\n\ncontract CryptoPunksMarket {\n    // You can use this hash to verify the image file containing all the punks\n    string public imageHash =\n        \"ac39af4793119ee46bbff351d8cb6b5f23da60222126add4268e261199a2921b\";\n\n    address owner;\n\n    string public standard = \"CryptoPunks\";\n    string public name;\n    string public symbol;\n    uint8 public decimals;\n    uint256 public totalSupply;\n\n    uint public nextPunkIndexToAssign = 0;\n\n    bool public allPunksAssigned = false;\n    uint public punksRemainingToAssign = 0;\n\n    mapping(uint => address) public punkIndexToAddress;\n\n    /* This creates an array with all balances */\n    mapping(address => uint256) public balanceOf;\n\n    struct Offer {\n        bool isForSale;\n        uint punkIndex;\n        address seller;\n        uint minValue; // in ether\n        address onlySellTo; // specify to sell only to a specific person\n    }\n\n    struct Bid {\n        bool hasBid;\n        uint punkIndex;\n        address bidder;\n        uint value;\n    }\n\n    // A record of punks that are offered for sale at a specific minimum value, and perhaps to a specific person\n    mapping(uint => Offer) public punksOfferedForSale;\n\n    // A record of the highest punk bid\n    mapping(uint => Bid) public punkBids;\n\n    mapping(address => uint) public pendingWithdrawals;\n\n    event Assign(address indexed to, uint256 punkIndex);\n    event Transfer(address indexed from, address indexed to, uint256 value);\n    event PunkTransfer(\n        address indexed from,\n        address indexed to,\n        uint256 punkIndex\n    );\n    event PunkOffered(\n        uint indexed punkIndex,\n        uint minValue,\n        address indexed toAddress\n    );\n    event PunkBidEntered(\n        uint indexed punkIndex,\n        uint value,\n        address indexed fromAddress\n    );\n    event PunkBidWithdrawn(\n        uint indexed punkIndex,\n        uint value,\n        address indexed fromAddress\n    );\n    event PunkBought(\n        uint indexed punkIndex,\n        uint value,\n        address indexed fromAddress,\n        address indexed toAddress\n    );\n    event PunkNoLongerForSale(uint indexed punkIndex);\n\n    /* Initializes contract with initial supply tokens to the creator of the contract */\n    constructor() public payable {\n        owner = msg.sender;\n        totalSupply = 10000; // Update total supply\n        punksRemainingToAssign = totalSupply;\n        name = \"CRYPTOPUNKS\"; // Set the name for display purposes\n        symbol = \"\"; // Set the symbol for display purposes\n        decimals = 0; // Amount of decimals for display purposes\n    }\n\n    //Set initial owner for each punk and emit Assign event\n    function setInitialOwner(address to, uint punkIndex) public {\n        if (msg.sender != owner) revert();\n        if (allPunksAssigned) revert();\n        if (punkIndex >= 10000) revert();\n        if (punkIndexToAddress[punkIndex] != to) {\n            if (punkIndexToAddress[punkIndex] != address(0)) {\n                balanceOf[punkIndexToAddress[punkIndex]]--;\n            } else {\n                punksRemainingToAssign--;\n            }\n            punkIndexToAddress[punkIndex] = to;\n            balanceOf[to]++;\n            emit Assign(to, punkIndex); //emit event\n        }\n    }\n\n    //Set initial for a list addresses and punks\n    function setInitialOwners(address[] memory addresses, uint[] memory indices) public {\n        if (msg.sender != owner) revert();\n        uint n = addresses.length;\n        for (uint i = 0; i < n; i++) {\n            setInitialOwner(addresses[i], indices[i]);\n        }\n    }\n\n    //All punks assigned\n    function allInitialOwnersAssigned() public {\n        if (msg.sender != owner) revert();\n        allPunksAssigned = true;\n    }\n\n    //Get punk by punk index\n    function getPunk(uint punkIndex) public {\n        if (!allPunksAssigned) revert();\n        if (punksRemainingToAssign == 0) revert();\n        if (punkIndexToAddress[punkIndex] != address(0)) revert();\n        if (punkIndex >= 10000) revert();\n        punkIndexToAddress[punkIndex] = msg.sender;\n        balanceOf[msg.sender]++;\n        punksRemainingToAssign--;\n        emit Assign(msg.sender, punkIndex);\n    }\n\n    // Transfer ownership of a punk to another user without requiring payment\n    function transferPunk(address to, uint punkIndex) public {\n        if (!allPunksAssigned) revert();\n        if (punkIndexToAddress[punkIndex] != msg.sender) revert();\n        if (punkIndex >= 10000) revert();\n        if (punksOfferedForSale[punkIndex].isForSale) {\n            punkNoLongerForSale(punkIndex);\n        }\n        punkIndexToAddress[punkIndex] = to;\n        balanceOf[msg.sender]--;\n        balanceOf[to]++;\n        emit Transfer(msg.sender, to, 1);\n        emit PunkTransfer(msg.sender, to, punkIndex);\n        // Check for the case where there is a bid from the new owner and refund it.\n        // Any other bid can stay in place.\n        Bid storage bid = punkBids[punkIndex];\n        if (bid.bidder == to) {\n            // Kill bid and refund value\n            pendingWithdrawals[to] += bid.value;\n            punkBids[punkIndex] = Bid(false, punkIndex, address(0), 0);\n        }\n    }\n\n    function punkNoLongerForSale(uint punkIndex) public {\n        if (!allPunksAssigned) revert();\n        if (punkIndexToAddress[punkIndex] != msg.sender) revert();\n        if (punkIndex >= 10000) revert();\n        punksOfferedForSale[punkIndex] = Offer(\n            false,\n            punkIndex,\n            msg.sender,\n            0,\n            address(0)\n        );\n        emit PunkNoLongerForSale(punkIndex);\n    }\n\n    function offerPunkForSale(uint punkIndex, uint minSalePriceInWei) public {\n        if (!allPunksAssigned) revert();\n        if (punkIndexToAddress[punkIndex] != msg.sender) revert();\n        if (punkIndex >= 10000) revert();\n        punksOfferedForSale[punkIndex] = Offer(\n            true,\n            punkIndex,\n            msg.sender,\n            minSalePriceInWei,\n            address(0)\n        );\n        emit PunkOffered(punkIndex, minSalePriceInWei, address(0));\n    }\n\n    function offerPunkForSaleToAddress(\n        uint punkIndex,\n        uint minSalePriceInWei,\n        address toAddress\n    ) public {\n        if (!allPunksAssigned) revert();\n        if (punkIndexToAddress[punkIndex] != msg.sender) revert();\n        if (punkIndex >= 10000) revert();\n        punksOfferedForSale[punkIndex] = Offer(\n            true,\n            punkIndex,\n            msg.sender,\n            minSalePriceInWei,\n            toAddress\n        );\n        emit PunkOffered(punkIndex, minSalePriceInWei, toAddress);\n    }\n\n    function buyPunk(uint punkIndex) public payable {\n        if (!allPunksAssigned) revert();\n        Offer storage offer = punksOfferedForSale[punkIndex];\n        if (punkIndex >= 10000) revert();\n        if (!offer.isForSale) revert(); // punk not actually for sale\n        if (offer.onlySellTo != address(0) && offer.onlySellTo != msg.sender) revert(); // punk not supposed to be sold to this user\n        if (msg.value < offer.minValue) revert(); // Didn't send enough ETH\n        if (offer.seller != punkIndexToAddress[punkIndex]) revert(); // Seller no longer owner of punk\n\n        address seller = offer.seller;\n\n        punkIndexToAddress[punkIndex] = msg.sender;\n        balanceOf[seller]--;\n        balanceOf[msg.sender]++;\n        emit Transfer(seller, msg.sender, 1);\n\n        punkNoLongerForSale(punkIndex);\n        pendingWithdrawals[seller] += msg.value;\n        emit PunkBought(punkIndex, msg.value, seller, msg.sender);\n\n        // Check for the case where there is a bid from the new owner and refund it.\n        // Any other bid can stay in place.\n        Bid storage bid = punkBids[punkIndex];\n        if (bid.bidder == msg.sender) {\n            // Kill bid and refund value\n            pendingWithdrawals[msg.sender] += bid.value;\n            punkBids[punkIndex] = Bid(false, punkIndex, address(0), 0);\n        }\n    }\n\n    function withdraw() public {\n        if (!allPunksAssigned) revert();\n        uint amount = pendingWithdrawals[msg.sender];\n        // Remember to zero the pending refund before\n        // sending to prevent re-entrancy attacks\n        pendingWithdrawals[msg.sender] = 0;\n        msg.sender.transfer(amount);\n    }\n\n    function enterBidForPunk(uint punkIndex) public payable {\n        if (punkIndex >= 10000) revert();\n        if (!allPunksAssigned) revert();\n        if (punkIndexToAddress[punkIndex] == address(0)) revert();\n        if (punkIndexToAddress[punkIndex] == msg.sender) revert();\n        if (msg.value == 0) revert();\n        Bid storage existing = punkBids[punkIndex];\n        if (msg.value <= existing.value) revert();\n        if (existing.value > 0) {\n            // Refund the failing bid\n            pendingWithdrawals[existing.bidder] += existing.value;\n        }\n        punkBids[punkIndex] = Bid(true, punkIndex, msg.sender, msg.value);\n        emit PunkBidEntered(punkIndex, msg.value, msg.sender);\n    }\n\n    function acceptBidForPunk(uint punkIndex, uint minPrice) public {\n        if (punkIndex >= 10000) revert();\n        if (!allPunksAssigned) revert();\n        if (punkIndexToAddress[punkIndex] != msg.sender) revert();\n        address seller = msg.sender;\n        Bid storage bid = punkBids[punkIndex];\n        if (bid.value == 0) revert();\n        if (bid.value < minPrice) revert();\n\n        punkIndexToAddress[punkIndex] = bid.bidder;\n        balanceOf[seller]--;\n        balanceOf[bid.bidder]++;\n        emit Transfer(seller, bid.bidder, 1);\n\n        punksOfferedForSale[punkIndex] = Offer(\n            false,\n            punkIndex,\n            bid.bidder,\n            0,\n            address(0)\n        );\n        uint amount = bid.value;\n        punkBids[punkIndex] = Bid(false, punkIndex, address(0), 0);\n        pendingWithdrawals[seller] += amount;\n        emit PunkBought(punkIndex, bid.value, seller, bid.bidder);\n    }\n\n    function withdrawBidForPunk(uint punkIndex) public {\n        if (punkIndex >= 10000) revert();\n        if (!allPunksAssigned) revert();\n        if (punkIndexToAddress[punkIndex] == address(0)) revert();\n        if (punkIndexToAddress[punkIndex] == msg.sender) revert();\n        Bid storage bid = punkBids[punkIndex];\n        if (bid.bidder != msg.sender) revert();\n        emit PunkBidWithdrawn(punkIndex, bid.value, msg.sender);\n        uint amount = bid.value;\n        punkBids[punkIndex] = Bid(false, punkIndex, address(0), 0);\n        // Refund the bid money\n        msg.sender.transfer(amount);\n    }\n}\n",
  "sourcePath": "/home/vieet/Desktop/golang-project/cryptopunks/contracts/CryptoPunksMarket.sol",
  "compiler": {
    "name": "solc",
    "version": "0.5.16+commit.9c3226ce.Emscripten.clang"
  },
  "schemaVersion": "3.4.11",
  "updatedAt": "2023-01-04T06:27:49.303Z",
  "networkType": "ethereum",
  "devdoc": {
    "methods": {}
  },
  "userdoc": {
    "methods": {}
  }
}